{
  "_format": "hh-sol-artifact-1",
  "contractName": "Genesis",
  "sourceName": "src/contracts/Genesis.sol",
  "abi": [
    {
      "inputs": [
        {
          "internalType": "uint256",
          "name": "_projectTax",
          "type": "uint256"
        }
      ],
      "stateMutability": "nonpayable",
      "type": "constructor"
    },
    {
      "anonymous": false,
      "inputs": [
        {
          "indexed": false,
          "internalType": "uint256",
          "name": "id",
          "type": "uint256"
        },
        {
          "indexed": false,
          "internalType": "string",
          "name": "actionType",
          "type": "string"
        },
        {
          "indexed": true,
          "internalType": "address",
          "name": "executor",
          "type": "address"
        },
        {
          "indexed": false,
          "internalType": "uint256",
          "name": "timestamp",
          "type": "uint256"
        }
      ],
      "name": "Action",
      "type": "event"
    },
    {
      "anonymous": false,
      "inputs": [
        {
          "indexed": true,
          "internalType": "uint256",
          "name": "id",
          "type": "uint256"
        },
        {
          "indexed": true,
          "internalType": "address",
          "name": "recipient",
          "type": "address"
        },
        {
          "indexed": false,
          "internalType": "uint256",
          "name": "amount",
          "type": "uint256"
        },
        {
          "indexed": false,
          "internalType": "uint256",
          "name": "tax",
          "type": "uint256"
        },
        {
          "indexed": false,
          "internalType": "uint256",
          "name": "timestamp",
          "type": "uint256"
        }
      ],
      "name": "PayoutProcessed",
      "type": "event"
    },
    {
      "anonymous": false,
      "inputs": [
        {
          "indexed": true,
          "internalType": "uint256",
          "name": "id",
          "type": "uint256"
        },
        {
          "indexed": true,
          "internalType": "address",
          "name": "backer",
          "type": "address"
        },
        {
          "indexed": false,
          "internalType": "uint256",
          "name": "amount",
          "type": "uint256"
        },
        {
          "indexed": false,
          "internalType": "uint256",
          "name": "timestamp",
          "type": "uint256"
        }
      ],
      "name": "ProjectBacked",
      "type": "event"
    },
    {
      "anonymous": false,
      "inputs": [
        {
          "indexed": true,
          "internalType": "uint256",
          "name": "id",
          "type": "uint256"
        },
        {
          "indexed": true,
          "internalType": "address",
          "name": "recipient",
          "type": "address"
        },
        {
          "indexed": false,
          "internalType": "uint256",
          "name": "amount",
          "type": "uint256"
        },
        {
          "indexed": false,
          "internalType": "uint256",
          "name": "timestamp",
          "type": "uint256"
        }
      ],
      "name": "RefundProcessed",
      "type": "event"
    },
    {
      "inputs": [
        {
          "internalType": "uint256",
          "name": "id",
          "type": "uint256"
        }
      ],
      "name": "backProject",
      "outputs": [
        {
          "internalType": "bool",
          "name": "",
          "type": "bool"
        }
      ],
      "stateMutability": "payable",
      "type": "function"
    },
    {
      "inputs": [
        {
          "internalType": "uint256",
          "name": "_taxPct",
          "type": "uint256"
        }
      ],
      "name": "changeTax",
      "outputs": [],
      "stateMutability": "nonpayable",
      "type": "function"
    },
    {
      "inputs": [
        {
          "internalType": "string",
          "name": "title",
          "type": "string"
        },
        {
          "internalType": "string",
          "name": "description",
          "type": "string"
        },
        {
          "internalType": "string",
          "name": "imageURL",
          "type": "string"
        },
        {
          "internalType": "uint256",
          "name": "cost",
          "type": "uint256"
        },
        {
          "internalType": "uint256",
          "name": "expiresAt",
          "type": "uint256"
        }
      ],
      "name": "createProject",
      "outputs": [
        {
          "internalType": "bool",
          "name": "",
          "type": "bool"
        }
      ],
      "stateMutability": "nonpayable",
      "type": "function"
    },
    {
      "inputs": [
        {
          "internalType": "uint256",
          "name": "id",
          "type": "uint256"
        }
      ],
      "name": "deleteProject",
      "outputs": [
        {
          "internalType": "bool",
          "name": "",
          "type": "bool"
        }
      ],
      "stateMutability": "nonpayable",
      "type": "function"
    },
    {
      "inputs": [
        {
          "internalType": "uint256",
          "name": "id",
          "type": "uint256"
        }
      ],
      "name": "getBackers",
      "outputs": [
        {
          "components": [
            {
              "internalType": "address",
              "name": "owner",
              "type": "address"
            },
            {
              "internalType": "uint256",
              "name": "contribution",
              "type": "uint256"
            },
            {
              "internalType": "uint256",
              "name": "timestamp",
              "type": "uint256"
            },
            {
              "internalType": "bool",
              "name": "refunded",
              "type": "bool"
            }
          ],
          "internalType": "struct Genesis.backerStruct[]",
          "name": "",
          "type": "tuple[]"
        }
      ],
      "stateMutability": "view",
      "type": "function"
    },
    {
      "inputs": [],
      "name": "getInternalBalance",
      "outputs": [
        {
          "internalType": "uint256",
          "name": "",
          "type": "uint256"
        }
      ],
      "stateMutability": "view",
      "type": "function"
    },
    {
      "inputs": [
        {
          "internalType": "uint256",
          "name": "id",
          "type": "uint256"
        }
      ],
      "name": "getProject",
      "outputs": [
        {
          "components": [
            {
              "internalType": "uint256",
              "name": "id",
              "type": "uint256"
            },
            {
              "internalType": "address",
              "name": "owner",
              "type": "address"
            },
            {
              "internalType": "string",
              "name": "title",
              "type": "string"
            },
            {
              "internalType": "string",
              "name": "description",
              "type": "string"
            },
            {
              "internalType": "string",
              "name": "imageURL",
              "type": "string"
            },
            {
              "internalType": "uint256",
              "name": "cost",
              "type": "uint256"
            },
            {
              "internalType": "uint256",
              "name": "raised",
              "type": "uint256"
            },
            {
              "internalType": "uint256",
              "name": "timestamp",
              "type": "uint256"
            },
            {
              "internalType": "uint256",
              "name": "payOutAt",
              "type": "uint256"
            },
            {
              "internalType": "uint256",
              "name": "expiresAt",
              "type": "uint256"
            },
            {
              "internalType": "uint256",
              "name": "backers",
              "type": "uint256"
            },
            {
              "internalType": "enum Genesis.statusEnum",
              "name": "status",
              "type": "uint8"
            }
          ],
          "internalType": "struct Genesis.projectStruct",
          "name": "",
          "type": "tuple"
        }
      ],
      "stateMutability": "view",
      "type": "function"
    },
    {
      "inputs": [],
      "name": "getProjects",
      "outputs": [
        {
          "components": [
            {
              "internalType": "uint256",
              "name": "id",
              "type": "uint256"
            },
            {
              "internalType": "address",
              "name": "owner",
              "type": "address"
            },
            {
              "internalType": "string",
              "name": "title",
              "type": "string"
            },
            {
              "internalType": "string",
              "name": "description",
              "type": "string"
            },
            {
              "internalType": "string",
              "name": "imageURL",
              "type": "string"
            },
            {
              "internalType": "uint256",
              "name": "cost",
              "type": "uint256"
            },
            {
              "internalType": "uint256",
              "name": "raised",
              "type": "uint256"
            },
            {
              "internalType": "uint256",
              "name": "timestamp",
              "type": "uint256"
            },
            {
              "internalType": "uint256",
              "name": "payOutAt",
              "type": "uint256"
            },
            {
              "internalType": "uint256",
              "name": "expiresAt",
              "type": "uint256"
            },
            {
              "internalType": "uint256",
              "name": "backers",
              "type": "uint256"
            },
            {
              "internalType": "enum Genesis.statusEnum",
              "name": "status",
              "type": "uint8"
            }
          ],
          "internalType": "struct Genesis.projectStruct[]",
          "name": "",
          "type": "tuple[]"
        }
      ],
      "stateMutability": "view",
      "type": "function"
    },
    {
      "inputs": [],
      "name": "owner",
      "outputs": [
        {
          "internalType": "address",
          "name": "",
          "type": "address"
        }
      ],
      "stateMutability": "view",
      "type": "function"
    },
    {
      "inputs": [],
      "name": "payOutDelay",
      "outputs": [
        {
          "internalType": "uint256",
          "name": "",
          "type": "uint256"
        }
      ],
      "stateMutability": "view",
      "type": "function"
    },
    {
      "inputs": [
        {
          "internalType": "uint256",
          "name": "id",
          "type": "uint256"
        }
      ],
      "name": "payOutProject",
      "outputs": [
        {
          "internalType": "bool",
          "name": "",
          "type": "bool"
        }
      ],
      "stateMutability": "nonpayable",
      "type": "function"
    },
    {
      "inputs": [],
      "name": "projectCount",
      "outputs": [
        {
          "internalType": "uint256",
          "name": "",
          "type": "uint256"
        }
      ],
      "stateMutability": "view",
      "type": "function"
    },
    {
      "inputs": [
        {
          "internalType": "uint256",
          "name": "",
          "type": "uint256"
        }
      ],
      "name": "projectExist",
      "outputs": [
        {
          "internalType": "bool",
          "name": "",
          "type": "bool"
        }
      ],
      "stateMutability": "view",
      "type": "function"
    },
    {
      "inputs": [],
      "name": "projectTax",
      "outputs": [
        {
          "internalType": "uint256",
          "name": "",
          "type": "uint256"
        }
      ],
      "stateMutability": "view",
      "type": "function"
    },
    {
      "inputs": [
        {
          "internalType": "uint256",
          "name": "id",
          "type": "uint256"
        }
      ],
      "name": "requestRefund",
      "outputs": [
        {
          "internalType": "bool",
          "name": "",
          "type": "bool"
        }
      ],
      "stateMutability": "nonpayable",
      "type": "function"
    },
    {
      "inputs": [],
      "name": "stats",
      "outputs": [
        {
          "internalType": "uint256",
          "name": "totalProjects",
          "type": "uint256"
        },
        {
          "internalType": "uint256",
          "name": "totalBacking",
          "type": "uint256"
        },
        {
          "internalType": "uint256",
          "name": "totalDonations",
          "type": "uint256"
        }
      ],
      "stateMutability": "view",
      "type": "function"
    },
    {
      "inputs": [
        {
          "internalType": "uint256",
          "name": "id",
          "type": "uint256"
        },
        {
          "internalType": "string",
          "name": "title",
          "type": "string"
        },
        {
          "internalType": "string",
          "name": "description",
          "type": "string"
        },
        {
          "internalType": "string",
          "name": "imageURL",
          "type": "string"
        },
        {
          "internalType": "uint256",
          "name": "expiresAt",
          "type": "uint256"
        }
      ],
      "name": "updateProject",
      "outputs": [
        {
          "internalType": "bool",
          "name": "",
          "type": "bool"
        }
      ],
      "stateMutability": "nonpayable",
      "type": "function"
    }
  ],
  "bytecode": "0x60806040526203f48060045534801561001757600080fd5b5060405161249138038061249183398101604081905261003691610055565b6001600081905580546001600160a01b0319163317905560025561006e565b60006020828403121561006757600080fd5b5051919050565b6124148061007d6000396000f3fe6080604052600436106100fe5760003560e01c80639f39a19411610095578063c9168b7211610064578063c9168b721461029e578063d24cd3ec146102cb578063d80528ae146102e1578063dcc601281461031b578063f0f3f2c81461033d57600080fd5b80639f39a19414610235578063a4b2409e14610248578063a5cfdd5514610268578063b531dcba1461027e57600080fd5b80634cd0cb28116100d15780634cd0cb281461018d5780638593054b146101ad5780638da5cb5b146101dd5780639a3fa8c71461021557600080fd5b8063056c29ee146101035780630d7347b21461013857806336fbad26146101555780633e45c8af1461016b575b600080fd5b34801561010f57600080fd5b5061012361011e366004611f11565b61036a565b60405190151581526020015b60405180910390f35b34801561014457600080fd5b50475b60405190815260200161012f565b34801561016157600080fd5b5061014760035481565b34801561017757600080fd5b5061018b610186366004611fab565b6107e4565b005b34801561019957600080fd5b506101236101a8366004611fab565b610839565b3480156101b957600080fd5b506101236101c8366004611fab565b600b6020526000908152604090205460ff1681565b3480156101e957600080fd5b506001546101fd906001600160a01b031681565b6040516001600160a01b03909116815260200161012f565b34801561022157600080fd5b50610123610230366004611fc4565b6109c9565b610123610243366004611fab565b610c40565b34801561025457600080fd5b50610123610263366004611fab565b611093565b34801561027457600080fd5b5061014760045481565b34801561028a57600080fd5b50610123610299366004611fab565b611150565b3480156102aa57600080fd5b506102be6102b9366004611fab565b6112bb565b60405161012f919061205e565b3480156102d757600080fd5b5061014760025481565b3480156102ed57600080fd5b5060055460065460075461030092919083565b6040805193845260208401929092529082015260600161012f565b34801561032757600080fd5b5061033061135d565b60405161012f9190612223565b34801561034957600080fd5b5061035d610358366004611fab565b611602565b60405161012f9190612285565b6000808651116103b95760405162461bcd60e51b81526020600482015260156024820152745469746c652063616e6e6f7420626520656d70747960581b60448201526064015b60405180910390fd5b600085511161040a5760405162461bcd60e51b815260206004820152601b60248201527f4465736372697074696f6e2063616e6e6f7420626520656d707479000000000060448201526064016103b0565b60008451116104565760405162461bcd60e51b8152602060048201526018602482015277496d61676555524c2063616e6e6f7420626520656d70747960401b60448201526064016103b0565b6000831161049c5760405162461bcd60e51b8152602060048201526013602482015272436f73742063616e6e6f74206265207a65726f60681b60448201526064016103b0565b6104a4611d5b565b600354815233602080830191825260408301898152606084018990526080840188905260a084018790524260e085015261012084018690526008805460018101825560009190915284517ff3f7a9fe364faab93b216da50a3214154f22a0a2b415b23a84c8169e8b636ee3600c90920291820190815593517ff3f7a9fe364faab93b216da50a3214154f22a0a2b415b23a84c8169e8b636ee4820180546001600160a01b0319166001600160a01b0390921691909117905590518051859493610591937ff3f7a9fe364faab93b216da50a3214154f22a0a2b415b23a84c8169e8b636ee501920190611dd5565b50606082015180516105ad916003840191602090910190611dd5565b50608082015180516105c9916004840191602090910190611dd5565b5060a0820151600582015560c0820151600682015560e0820151600782015561010082015160088201556101208201516009820155610140820151600a820155610160820151600b8201805460ff1916600183600481111561062d5761062d61211a565b0217905550506003546000908152600b602090815260408083208054600160ff1990911681179091553384526009835281842080548083018255908552938390208651600c909502019384558583015190840180546001600160a01b0319166001600160a01b0390921691909117905584015180518594506106b59260028501920190611dd5565b50606082015180516106d1916003840191602090910190611dd5565b50608082015180516106ed916004840191602090910190611dd5565b5060a0820151600582015560c0820151600682015560e0820151600782015561010082015160088201556101208201516009820155610140820151600a820155610160820151600b8201805460ff191660018360048111156107515761075161211a565b0217905550505060016005600001600082825461076e91906122b5565b90915550506003805433916000805160206123bf83398151915291906000610795836122cd565b9091555060408051918252606060208301819052600f908301526e141493d29150d50810d49150551151608a1b6080830152429082015260a00160405180910390a25060019695505050505050565b6001546001600160a01b031633146108345760405162461bcd60e51b81526020600482015260136024820152724f776e6572207265736572766564206f6e6c7960681b60448201526064016103b0565b600255565b60006108436118ec565b600060088381548110610858576108586122e8565b60009182526020909120600b600c90920201015460ff1660048111156108805761088061211a565b146108c85760405162461bcd60e51b8152602060048201526018602482015277141c9bda9958dd081b9bc81b1bdb99d95c881bdc195b995960421b60448201526064016103b0565b600882815481106108db576108db6122e8565b60009182526020909120600c90910201600101546001600160a01b031633146109165760405162461bcd60e51b81526004016103b0906122fe565b60036008838154811061092b5761092b6122e8565b60009182526020909120600b600c9092020101805460ff191660018360048111156109585761095861211a565b021790555061096682611946565b60408051838152606060208201819052600f908201526e141493d29150d50811115311551151608a1b60808201524281830152905133916000805160206123bf833981519152919081900360a00190a25060015b6109c46001600055565b919050565b6000600886815481106109de576109de6122e8565b60009182526020909120600c90910201600101546001600160a01b03163314610a195760405162461bcd60e51b81526004016103b0906122fe565b6000855111610a625760405162461bcd60e51b81526020600482015260156024820152745469746c652063616e6e6f7420626520656d70747960581b60448201526064016103b0565b6000845111610ab35760405162461bcd60e51b815260206004820152601b60248201527f4465736372697074696f6e2063616e6e6f7420626520656d707479000000000060448201526064016103b0565b6000835111610aff5760405162461bcd60e51b8152602060048201526018602482015277496d61676555524c2063616e6e6f7420626520656d70747960401b60448201526064016103b0565b8460088781548110610b1357610b136122e8565b90600052602060002090600c02016002019080519060200190610b37929190611dd5565b508360088781548110610b4c57610b4c6122e8565b90600052602060002090600c02016003019080519060200190610b70929190611dd5565b508260088781548110610b8557610b856122e8565b90600052602060002090600c02016004019080519060200190610ba9929190611dd5565b508160088781548110610bbe57610bbe6122e8565b90600052602060002090600c020160090181905550336001600160a01b03166000805160206123bf8339815191528742604051610c2c929190918252606060208301819052600f908301526e141493d29150d50815541110551151608a1b6080830152604082015260a00190565b60405180910390a250600195945050505050565b6000610c4a6118ec565b60003411610c9a5760405162461bcd60e51b815260206004820152601f60248201527f4574686572206d7573742062652067726561746572207468616e207a65726f0060448201526064016103b0565b6000828152600b602052604090205460ff16610cec5760405162461bcd60e51b8152602060048201526011602482015270141c9bda9958dd081b9bdd08199bdd5b99607a1b60448201526064016103b0565b600060088381548110610d0157610d016122e8565b60009182526020909120600b600c90920201015460ff166004811115610d2957610d2961211a565b14610d715760405162461bcd60e51b8152602060048201526018602482015277141c9bda9958dd081b9bc81b1bdb99d95c881bdc195b995960421b60448201526064016103b0565b600160056001016000828254610d8791906122b5565b909155505060078054349190600090610da19084906122b5565b925050819055503460088381548110610dbc57610dbc6122e8565b90600052602060002090600c02016006016000828254610ddc91906122b5565b92505081905550600160088381548110610df857610df86122e8565b90600052602060002090600c0201600a016000828254610e1891906122b5565b90915550506000828152600a602090815260408083208151608081018352338082523482860181815242848701818152606086018a8152875460018082018a55988c529a8a902096516004909b0290960180546001600160a01b0319166001600160a01b03909b169a909a178a5591519589019590955551600288015591516003909601805460ff19169615159690961790955582519081529283015284917f2687b19d430e06b73484498192cd4fba3c21599e2f535b16fc2bdc17545b715b910160405180910390a360408051838152606060208201819052600e908201526d141493d29150d508109050d2d15160921b60808201524281830152905133916000805160206123bf833981519152919081900360a00190a260088281548110610f4457610f446122e8565b90600052602060002090600c02016005015460088381548110610f6957610f696122e8565b90600052602060002090600c0201600601541061100357600160088381548110610f9557610f956122e8565b60009182526020909120600b600c9092020101805460ff19166001836004811115610fc257610fc261211a565b0217905550600454610fd490426122b5565b60088381548110610fe757610fe76122e8565b600091825260209091206008600c9092020101555060016109ba565b60088281548110611016576110166122e8565b90600052602060002090600c020160090154421061108657600260088381548110611043576110436122e8565b60009182526020909120600b600c9092020101805460ff191660018360048111156110705761107061211a565b021790555061107e82611946565b5060016109ba565b5060016109c46001600055565b600061109d6118ec565b600882815481106110b0576110b06122e8565b60009182526020909120600c90910201600101546001600160a01b03163314806110e457506001546001600160a01b031633145b6111005760405162461bcd60e51b81526004016103b0906122fe565b600260088381548110611115576111156122e8565b60009182526020909120600b600c9092020101805460ff191660018360048111156111425761114261211a565b021790555061108682611946565b600061115a6118ec565b60016008838154811061116f5761116f6122e8565b60009182526020909120600b600c90920201015460ff1660048111156111975761119761211a565b146111db5760405162461bcd60e51b8152602060048201526014602482015273141c9bda9958dd081b9bdd081054141493d5915160621b60448201526064016103b0565b600882815481106111ee576111ee6122e8565b90600052602060002090600c02016008015442101561124f5760405162461bcd60e51b815260206004820152601860248201527f5061796f75742064656c6179206e6f742072656163686564000000000000000060448201526064016103b0565b60088281548110611262576112626122e8565b60009182526020909120600c90910201600101546001600160a01b031633148061129657506001546001600160a01b031633145b6112b25760405162461bcd60e51b81526004016103b0906122fe565b61108682611b40565b6060600a6000838152602001908152602001600020805480602002602001604051908101604052809291908181526020016000905b82821015611352576000848152602090819020604080516080810182526004860290920180546001600160a01b03168352600180820154848601526002820154928401929092526003015460ff161515606083015290835290920191016112f0565b505050509050919050565b60606008805480602002602001604051908101604052809291908181526020016000905b828210156115f95760008481526020908190206040805161018081018252600c86029092018054835260018101546001600160a01b031693830193909352600283018054929392918401916113d59061232b565b80601f01602080910402602001604051908101604052809291908181526020018280546114019061232b565b801561144e5780601f106114235761010080835404028352916020019161144e565b820191906000526020600020905b81548152906001019060200180831161143157829003601f168201915b505050505081526020016003820180546114679061232b565b80601f01602080910402602001604051908101604052809291908181526020018280546114939061232b565b80156114e05780601f106114b5576101008083540402835291602001916114e0565b820191906000526020600020905b8154815290600101906020018083116114c357829003601f168201915b505050505081526020016004820180546114f99061232b565b80601f01602080910402602001604051908101604052809291908181526020018280546115259061232b565b80156115725780601f1061154757610100808354040283529160200191611572565b820191906000526020600020905b81548152906001019060200180831161155557829003601f168201915b505050918352505060058201546020820152600682015460408201526007820154606082015260088201546080820152600982015460a0820152600a82015460c0820152600b82015460e09091019060ff1660048111156115d5576115d561211a565b60048111156115e6576115e661211a565b8152505081526020019060010190611381565b50505050905090565b61160a611d5b565b6000828152600b602052604090205460ff1661165c5760405162461bcd60e51b8152602060048201526011602482015270141c9bda9958dd081b9bdd08199bdd5b99607a1b60448201526064016103b0565b6008828154811061166f5761166f6122e8565b90600052602060002090600c020160405180610180016040529081600082015481526020016001820160009054906101000a90046001600160a01b03166001600160a01b03166001600160a01b031681526020016002820180546116d29061232b565b80601f01602080910402602001604051908101604052809291908181526020018280546116fe9061232b565b801561174b5780601f106117205761010080835404028352916020019161174b565b820191906000526020600020905b81548152906001019060200180831161172e57829003601f168201915b505050505081526020016003820180546117649061232b565b80601f01602080910402602001604051908101604052809291908181526020018280546117909061232b565b80156117dd5780601f106117b2576101008083540402835291602001916117dd565b820191906000526020600020905b8154815290600101906020018083116117c057829003601f168201915b505050505081526020016004820180546117f69061232b565b80601f01602080910402602001604051908101604052809291908181526020018280546118229061232b565b801561186f5780601f106118445761010080835404028352916020019161186f565b820191906000526020600020905b81548152906001019060200180831161185257829003601f168201915b505050918352505060058201546020820152600682015460408201526007820154606082015260088201546080820152600982015460a0820152600a82015460c0820152600b82015460e09091019060ff1660048111156118d2576118d261211a565b60048111156118e3576118e361211a565b90525092915050565b6002600054141561193f5760405162461bcd60e51b815260206004820152601f60248201527f5265656e7472616e637947756172643a207265656e7472616e742063616c6c0060448201526064016103b0565b6002600055565b60005b6000828152600a6020526040902054811015611b3c576000828152600a6020526040812080548390811061197f5761197f6122e8565b60009182526020808320600490920290910154858352600a9091526040822080546001600160a01b03909216935090849081106119be576119be6122e8565b906000526020600020906004020160010154905080600014156119e2575050611b2a565b6000848152600a6020526040902080546001919085908110611a0657611a066122e8565b906000526020600020906004020160030160006101000a81548160ff02191690831515021790555042600a60008681526020019081526020016000208481548110611a5357611a536122e8565b9060005260206000209060040201600201819055506000600a60008681526020019081526020016000208481548110611a8e57611a8e6122e8565b906000526020600020906004020160010181905550611aad8282611cf6565b604080518281524260208201526001600160a01b0384169186917fd0db0e7eda41bb1bea0e3cefcb1e61a85c4224eb3946df6220ba4a29f7d5462a910160405180910390a3600160056001016000828254611b089190612366565b909155505060078054829190600090611b22908490612366565b909155505050505b80611b34816122cd565b915050611949565b5050565b600060088281548110611b5557611b556122e8565b90600052602060002090600c02016006015490506000606460025483611b7b919061237d565b611b85919061239c565b9050600460088481548110611b9c57611b9c6122e8565b60009182526020909120600b600c9092020101805460ff19166001836004811115611bc957611bc961211a565b0217905550611c1060088481548110611be457611be46122e8565b600091825260209091206001600c9092020101546001600160a01b0316611c0b8385612366565b611cf6565b600154611c26906001600160a01b031682611cf6565b60088381548110611c3957611c396122e8565b600091825260209091206001600c9092020101546001600160a01b0316837f750320d5ad9a430e718f2be00b7c00dde8a91363d132a759edd58a61163d2b0f611c828486612366565b6040805191825260208201869052429082015260600160405180910390a3604080518481526060602082018190526010908201526f141493d29150d508141052510813d55560821b60808201524281830152905133916000805160206123bf833981519152919081900360a00190a2505050565b6000826001600160a01b03168260405160006040518083038185875af1925050503d8060008114611d43576040519150601f19603f3d011682016040523d82523d6000602084013e611d48565b606091505b5050905080611d5657600080fd5b505050565b6040518061018001604052806000815260200160006001600160a01b0316815260200160608152602001606081526020016060815260200160008152602001600081526020016000815260200160008152602001600081526020016000815260200160006004811115611dd057611dd061211a565b905290565b828054611de19061232b565b90600052602060002090601f016020900481019282611e035760008555611e49565b82601f10611e1c57805160ff1916838001178555611e49565b82800160010185558215611e49579182015b82811115611e49578251825591602001919060010190611e2e565b50611e55929150611e59565b5090565b5b80821115611e555760008155600101611e5a565b634e487b7160e01b600052604160045260246000fd5b600082601f830112611e9557600080fd5b813567ffffffffffffffff80821115611eb057611eb0611e6e565b604051601f8301601f19908116603f01168101908282118183101715611ed857611ed8611e6e565b81604052838152866020858801011115611ef157600080fd5b836020870160208301376000602085830101528094505050505092915050565b600080600080600060a08688031215611f2957600080fd5b853567ffffffffffffffff80821115611f4157600080fd5b611f4d89838a01611e84565b96506020880135915080821115611f6357600080fd5b611f6f89838a01611e84565b95506040880135915080821115611f8557600080fd5b50611f9288828901611e84565b9598949750949560608101359550608001359392505050565b600060208284031215611fbd57600080fd5b5035919050565b600080600080600060a08688031215611fdc57600080fd5b85359450602086013567ffffffffffffffff80821115611ffb57600080fd5b61200789838a01611e84565b9550604088013591508082111561201d57600080fd5b61202989838a01611e84565b9450606088013591508082111561203f57600080fd5b5061204c88828901611e84565b95989497509295608001359392505050565b602080825282518282018190526000919060409081850190868401855b828110156120c057815180516001600160a01b03168552868101518786015285810151868601526060908101511515908501526080909301929085019060010161207b565b5091979650505050505050565b6000815180845260005b818110156120f3576020818501810151868301820152016120d7565b81811115612105576000602083870101525b50601f01601f19169290920160200192915050565b634e487b7160e01b600052602160045260246000fd5b6005811061214e57634e487b7160e01b600052602160045260246000fd5b9052565b600061018082518452602083015161217560208601826001600160a01b03169052565b50604083015181604086015261218d828601826120cd565b915050606083015184820360608601526121a782826120cd565b915050608083015184820360808601526121c182826120cd565b91505060a083015160a085015260c083015160c085015260e083015160e08501526101008084015181860152506101208084015181860152506101408084015181860152506101608084015161221982870182612130565b5090949350505050565b6000602080830181845280855180835260408601915060408160051b870101925083870160005b8281101561227857603f19888603018452612266858351612152565b9450928501929085019060010161224a565b5092979650505050505050565b6020815260006122986020830184612152565b9392505050565b634e487b7160e01b600052601160045260246000fd5b600082198211156122c8576122c861229f565b500190565b60006000198214156122e1576122e161229f565b5060010190565b634e487b7160e01b600052603260045260246000fd5b602080825260139082015272556e617574686f72697a656420456e7469747960681b604082015260600190565b600181811c9082168061233f57607f821691505b6020821081141561236057634e487b7160e01b600052602260045260246000fd5b50919050565b6000828210156123785761237861229f565b500390565b60008160001904831182151516156123975761239761229f565b500290565b6000826123b957634e487b7160e01b600052601260045260246000fd5b50049056feaee8e5d3bbb2f71a951b5632cee20f7ac487b9f8ab4f66a236f7694b13af7c6aa2646970667358221220411c5eb85f75f377c735b025ef8481fe5c89e29111f027f174cbb1e817fc419764736f6c634300080b0033",
  "linkReferences": {},
  "deployedLinkReferences": {}
}