{
  "_format": "hh-sol-artifact-1",
  "contractName": "Genesis",
  "sourceName": "src/contracts/Genesis.sol",
  "abi": [
    {
      "inputs": [
        {
          "internalType": "uint256",
          "name": "_projectTax",
          "type": "uint256"
        }
      ],
      "stateMutability": "nonpayable",
      "type": "constructor"
    },
    {
      "anonymous": false,
      "inputs": [
        {
          "indexed": false,
          "internalType": "uint256",
          "name": "id",
          "type": "uint256"
        },
        {
          "indexed": false,
          "internalType": "string",
          "name": "actionType",
          "type": "string"
        },
        {
          "indexed": true,
          "internalType": "address",
          "name": "executor",
          "type": "address"
        },
        {
          "indexed": false,
          "internalType": "uint256",
          "name": "timestamp",
          "type": "uint256"
        }
      ],
      "name": "Action",
      "type": "event"
    },
    {
      "inputs": [
        {
          "internalType": "uint256",
          "name": "id",
          "type": "uint256"
        }
      ],
      "name": "backProject",
      "outputs": [
        {
          "internalType": "bool",
          "name": "",
          "type": "bool"
        }
      ],
      "stateMutability": "payable",
      "type": "function"
    },
    {
      "inputs": [],
      "name": "balance",
      "outputs": [
        {
          "internalType": "uint256",
          "name": "",
          "type": "uint256"
        }
      ],
      "stateMutability": "view",
      "type": "function"
    },
    {
      "inputs": [
        {
          "internalType": "uint256",
          "name": "_taxPct",
          "type": "uint256"
        }
      ],
      "name": "changeTax",
      "outputs": [],
      "stateMutability": "nonpayable",
      "type": "function"
    },
    {
      "inputs": [
        {
          "internalType": "string",
          "name": "title",
          "type": "string"
        },
        {
          "internalType": "string",
          "name": "description",
          "type": "string"
        },
        {
          "internalType": "string",
          "name": "imageURL",
          "type": "string"
        },
        {
          "internalType": "uint256",
          "name": "cost",
          "type": "uint256"
        },
        {
          "internalType": "uint256",
          "name": "expiresAt",
          "type": "uint256"
        }
      ],
      "name": "createProject",
      "outputs": [
        {
          "internalType": "bool",
          "name": "",
          "type": "bool"
        }
      ],
      "stateMutability": "nonpayable",
      "type": "function"
    },
    {
      "inputs": [
        {
          "internalType": "uint256",
          "name": "id",
          "type": "uint256"
        }
      ],
      "name": "deleteProject",
      "outputs": [
        {
          "internalType": "bool",
          "name": "",
          "type": "bool"
        }
      ],
      "stateMutability": "nonpayable",
      "type": "function"
    },
    {
      "inputs": [
        {
          "internalType": "uint256",
          "name": "id",
          "type": "uint256"
        }
      ],
      "name": "getBackers",
      "outputs": [
        {
          "components": [
            {
              "internalType": "address",
              "name": "owner",
              "type": "address"
            },
            {
              "internalType": "uint256",
              "name": "contribution",
              "type": "uint256"
            },
            {
              "internalType": "uint256",
              "name": "timestamp",
              "type": "uint256"
            },
            {
              "internalType": "bool",
              "name": "refunded",
              "type": "bool"
            }
          ],
          "internalType": "struct Genesis.backerStruct[]",
          "name": "",
          "type": "tuple[]"
        }
      ],
      "stateMutability": "view",
      "type": "function"
    },
    {
      "inputs": [
        {
          "internalType": "uint256",
          "name": "id",
          "type": "uint256"
        }
      ],
      "name": "getProject",
      "outputs": [
        {
          "components": [
            {
              "internalType": "uint256",
              "name": "id",
              "type": "uint256"
            },
            {
              "internalType": "address",
              "name": "owner",
              "type": "address"
            },
            {
              "internalType": "string",
              "name": "title",
              "type": "string"
            },
            {
              "internalType": "string",
              "name": "description",
              "type": "string"
            },
            {
              "internalType": "string",
              "name": "imageURL",
              "type": "string"
            },
            {
              "internalType": "uint256",
              "name": "cost",
              "type": "uint256"
            },
            {
              "internalType": "uint256",
              "name": "raised",
              "type": "uint256"
            },
            {
              "internalType": "uint256",
              "name": "timestamp",
              "type": "uint256"
            },
            {
              "internalType": "uint256",
              "name": "payOutAt",
              "type": "uint256"
            },
            {
              "internalType": "uint256",
              "name": "expiresAt",
              "type": "uint256"
            },
            {
              "internalType": "uint256",
              "name": "backers",
              "type": "uint256"
            },
            {
              "internalType": "enum Genesis.statusEnum",
              "name": "status",
              "type": "uint8"
            }
          ],
          "internalType": "struct Genesis.projectStruct",
          "name": "",
          "type": "tuple"
        }
      ],
      "stateMutability": "view",
      "type": "function"
    },
    {
      "inputs": [],
      "name": "getProjects",
      "outputs": [
        {
          "components": [
            {
              "internalType": "uint256",
              "name": "id",
              "type": "uint256"
            },
            {
              "internalType": "address",
              "name": "owner",
              "type": "address"
            },
            {
              "internalType": "string",
              "name": "title",
              "type": "string"
            },
            {
              "internalType": "string",
              "name": "description",
              "type": "string"
            },
            {
              "internalType": "string",
              "name": "imageURL",
              "type": "string"
            },
            {
              "internalType": "uint256",
              "name": "cost",
              "type": "uint256"
            },
            {
              "internalType": "uint256",
              "name": "raised",
              "type": "uint256"
            },
            {
              "internalType": "uint256",
              "name": "timestamp",
              "type": "uint256"
            },
            {
              "internalType": "uint256",
              "name": "payOutAt",
              "type": "uint256"
            },
            {
              "internalType": "uint256",
              "name": "expiresAt",
              "type": "uint256"
            },
            {
              "internalType": "uint256",
              "name": "backers",
              "type": "uint256"
            },
            {
              "internalType": "enum Genesis.statusEnum",
              "name": "status",
              "type": "uint8"
            }
          ],
          "internalType": "struct Genesis.projectStruct[]",
          "name": "",
          "type": "tuple[]"
        }
      ],
      "stateMutability": "view",
      "type": "function"
    },
    {
      "inputs": [],
      "name": "owner",
      "outputs": [
        {
          "internalType": "address",
          "name": "",
          "type": "address"
        }
      ],
      "stateMutability": "view",
      "type": "function"
    },
    {
      "inputs": [],
      "name": "payOutDelay",
      "outputs": [
        {
          "internalType": "uint256",
          "name": "",
          "type": "uint256"
        }
      ],
      "stateMutability": "view",
      "type": "function"
    },
    {
      "inputs": [
        {
          "internalType": "uint256",
          "name": "id",
          "type": "uint256"
        }
      ],
      "name": "payOutProject",
      "outputs": [
        {
          "internalType": "bool",
          "name": "",
          "type": "bool"
        }
      ],
      "stateMutability": "nonpayable",
      "type": "function"
    },
    {
      "inputs": [],
      "name": "projectCount",
      "outputs": [
        {
          "internalType": "uint256",
          "name": "",
          "type": "uint256"
        }
      ],
      "stateMutability": "view",
      "type": "function"
    },
    {
      "inputs": [
        {
          "internalType": "uint256",
          "name": "",
          "type": "uint256"
        }
      ],
      "name": "projectExist",
      "outputs": [
        {
          "internalType": "bool",
          "name": "",
          "type": "bool"
        }
      ],
      "stateMutability": "view",
      "type": "function"
    },
    {
      "inputs": [],
      "name": "projectTax",
      "outputs": [
        {
          "internalType": "uint256",
          "name": "",
          "type": "uint256"
        }
      ],
      "stateMutability": "view",
      "type": "function"
    },
    {
      "inputs": [
        {
          "internalType": "uint256",
          "name": "id",
          "type": "uint256"
        }
      ],
      "name": "requestRefund",
      "outputs": [
        {
          "internalType": "bool",
          "name": "",
          "type": "bool"
        }
      ],
      "stateMutability": "nonpayable",
      "type": "function"
    },
    {
      "inputs": [],
      "name": "stats",
      "outputs": [
        {
          "internalType": "uint256",
          "name": "totalProjects",
          "type": "uint256"
        },
        {
          "internalType": "uint256",
          "name": "totalBacking",
          "type": "uint256"
        },
        {
          "internalType": "uint256",
          "name": "totalDonations",
          "type": "uint256"
        }
      ],
      "stateMutability": "view",
      "type": "function"
    },
    {
      "inputs": [
        {
          "internalType": "uint256",
          "name": "id",
          "type": "uint256"
        },
        {
          "internalType": "string",
          "name": "title",
          "type": "string"
        },
        {
          "internalType": "string",
          "name": "description",
          "type": "string"
        },
        {
          "internalType": "string",
          "name": "imageURL",
          "type": "string"
        },
        {
          "internalType": "uint256",
          "name": "expiresAt",
          "type": "uint256"
        }
      ],
      "name": "updateProject",
      "outputs": [
        {
          "internalType": "bool",
          "name": "",
          "type": "bool"
        }
      ],
      "stateMutability": "nonpayable",
      "type": "function"
    }
  ],
  "bytecode": "0x60806040526203f48060045534801561001757600080fd5b5060405161234738038061234783398101604081905261003691610050565b600080546001600160a01b03191633179055600155610069565b60006020828403121561006257600080fd5b5051919050565b6122cf806100786000396000f3fe6080604052600436106100fe5760003560e01c8063a4b2409e11610095578063c9168b7211610064578063c9168b72146102a5578063d24cd3ec146102d2578063d80528ae146102e8578063dcc6012814610322578063f0f3f2c81461034457600080fd5b8063a4b2409e14610239578063a5cfdd5514610259578063b531dcba1461026f578063b69ef8a81461028f57600080fd5b80638593054b116100d15780638593054b1461019e5780638da5cb5b146101ce5780639a3fa8c7146102065780639f39a1941461022657600080fd5b8063056c29ee1461010357806336fbad26146101385780633e45c8af1461015c5780634cd0cb281461017e575b600080fd5b34801561010f57600080fd5b5061012361011e366004611dcc565b610371565b60405190151581526020015b60405180910390f35b34801561014457600080fd5b5061014e60025481565b60405190815260200161012f565b34801561016857600080fd5b5061017c610177366004611e66565b6107f4565b005b34801561018a57600080fd5b50610123610199366004611e66565b610849565b3480156101aa57600080fd5b506101236101b9366004611e66565b600b6020526000908152604090205460ff1681565b3480156101da57600080fd5b506000546101ee906001600160a01b031681565b6040516001600160a01b03909116815260200161012f565b34801561021257600080fd5b50610123610221366004611e7f565b6109c5565b610123610234366004611e66565b610c3c565b34801561024557600080fd5b50610123610254366004611e66565b611040565b34801561026557600080fd5b5061014e60045481565b34801561027b57600080fd5b5061012361028a366004611e66565b611138565b34801561029b57600080fd5b5061014e60035481565b3480156102b157600080fd5b506102c56102c0366004611e66565b61129b565b60405161012f9190611f19565b3480156102de57600080fd5b5061014e60015481565b3480156102f457600080fd5b5060055460065460075461030792919083565b6040805193845260208401929092529082015260600161012f565b34801561032e57600080fd5b5061033761133d565b60405161012f91906120de565b34801561035057600080fd5b5061036461035f366004611e66565b6115e2565b60405161012f9190612140565b6000808651116103c05760405162461bcd60e51b81526020600482015260156024820152745469746c652063616e6e6f7420626520656d70747960581b60448201526064015b60405180910390fd5b60008551116104115760405162461bcd60e51b815260206004820152601b60248201527f4465736372697074696f6e2063616e6e6f7420626520656d707479000000000060448201526064016103b7565b600084511161045d5760405162461bcd60e51b8152602060048201526018602482015277496d61676555524c2063616e6e6f7420626520656d70747960401b60448201526064016103b7565b600083116104a35760405162461bcd60e51b8152602060048201526013602482015272436f73742063616e6e6f74206265207a65726f60681b60448201526064016103b7565b6104ab611c16565b600254815233602080830191825260408301898152606084018990526080840188905260a084018790524260e085015261012084018690526008805460018101825560009190915284517ff3f7a9fe364faab93b216da50a3214154f22a0a2b415b23a84c8169e8b636ee3600c90920291820190815593517ff3f7a9fe364faab93b216da50a3214154f22a0a2b415b23a84c8169e8b636ee4820180546001600160a01b0319166001600160a01b0390921691909117905590518051859493610598937ff3f7a9fe364faab93b216da50a3214154f22a0a2b415b23a84c8169e8b636ee501920190611c90565b50606082015180516105b4916003840191602090910190611c90565b50608082015180516105d0916004840191602090910190611c90565b5060a0820151600582015560c0820151600682015560e0820151600782015561010082015160088201556101208201516009820155610140820151600a820155610160820151600b8201805460ff1916600183600481111561063457610634611fd5565b021790555050600280546000908152600b602090815260408083208054600160ff1990911681179091553384526009835281842080548083018255908552938390208751600c909502019384558683015190840180546001600160a01b0319166001600160a01b03909216919091179055850151805186955092936106c193908501929190910190611c90565b50606082015180516106dd916003840191602090910190611c90565b50608082015180516106f9916004840191602090910190611c90565b5060a0820151600582015560c0820151600682015560e0820151600782015561010082015160088201556101208201516009820155610140820151600a820155610160820151600b8201805460ff1916600183600481111561075d5761075d611fd5565b0217905550505060016005600001600082825461077a9190612170565b909155505060025460408051918252606060208301819052600f908301526e141493d29150d50810d49150551151608a1b60808301524290820152339060008051602061227a8339815191529060a00160405180910390a2600280549060006107e283612188565b90915550600198975050505050505050565b6000546001600160a01b031633146108445760405162461bcd60e51b81526020600482015260136024820152724f776e6572207265736572766564206f6e6c7960681b60448201526064016103b7565b600155565b6000806008838154811061085f5761085f6121a3565b60009182526020909120600b600c90920201015460ff16600481111561088757610887611fd5565b146108cf5760405162461bcd60e51b8152602060048201526018602482015277141c9bda9958dd081b9bc81b1bdb99d95c881bdc195b995960421b60448201526064016103b7565b600882815481106108e2576108e26121a3565b60009182526020909120600c90910201600101546001600160a01b0316331461091d5760405162461bcd60e51b81526004016103b7906121b9565b600360088381548110610932576109326121a3565b60009182526020909120600b600c9092020101805460ff1916600183600481111561095f5761095f611fd5565b021790555061096d826118cc565b60408051838152606060208201819052600f908201526e141493d29150d50811115311551151608a1b608082015242818301529051339160008051602061227a833981519152919081900360a00190a2506001919050565b6000600886815481106109da576109da6121a3565b60009182526020909120600c90910201600101546001600160a01b03163314610a155760405162461bcd60e51b81526004016103b7906121b9565b6000855111610a5e5760405162461bcd60e51b81526020600482015260156024820152745469746c652063616e6e6f7420626520656d70747960581b60448201526064016103b7565b6000845111610aaf5760405162461bcd60e51b815260206004820152601b60248201527f4465736372697074696f6e2063616e6e6f7420626520656d707479000000000060448201526064016103b7565b6000835111610afb5760405162461bcd60e51b8152602060048201526018602482015277496d61676555524c2063616e6e6f7420626520656d70747960401b60448201526064016103b7565b8460088781548110610b0f57610b0f6121a3565b90600052602060002090600c02016002019080519060200190610b33929190611c90565b508360088781548110610b4857610b486121a3565b90600052602060002090600c02016003019080519060200190610b6c929190611c90565b508260088781548110610b8157610b816121a3565b90600052602060002090600c02016004019080519060200190610ba5929190611c90565b508160088781548110610bba57610bba6121a3565b90600052602060002090600c020160090181905550336001600160a01b031660008051602061227a8339815191528742604051610c28929190918252606060208301819052600f908301526e141493d29150d50815541110551151608a1b6080830152604082015260a00190565b60405180910390a250600195945050505050565b6000803411610c8d5760405162461bcd60e51b815260206004820152601f60248201527f4574686572206d7573742062652067726561746572207468616e207a65726f0060448201526064016103b7565b6000828152600b602052604090205460ff16610cdf5760405162461bcd60e51b8152602060048201526011602482015270141c9bda9958dd081b9bdd08199bdd5b99607a1b60448201526064016103b7565b600060088381548110610cf457610cf46121a3565b60009182526020909120600b600c90920201015460ff166004811115610d1c57610d1c611fd5565b14610d645760405162461bcd60e51b8152602060048201526018602482015277141c9bda9958dd081b9bc81b1bdb99d95c881bdc195b995960421b60448201526064016103b7565b600160056001016000828254610d7a9190612170565b909155505060078054349190600090610d94908490612170565b925050819055503460088381548110610daf57610daf6121a3565b90600052602060002090600c02016006016000828254610dcf9190612170565b92505081905550600160088381548110610deb57610deb6121a3565b90600052602060002090600c0201600a016000828254610e0b9190612170565b90915550506000828152600a6020908152604080832081516080808201845233808352348387019081524284870181815260608087018b8152885460018082018b55998d529b8b902097516004909c0290970180546001600160a01b0319166001600160a01b03909c169b909b178b559251968a01969096559451600289015592516003909701805460ff1916971515979097179096558351888152948501829052600e918501919091526d141493d29150d508109050d2d15160921b908401529082015260008051602061227a8339815191529060a00160405180910390a260088281548110610efe57610efe6121a3565b90600052602060002090600c02016005015460088381548110610f2357610f236121a3565b90600052602060002090600c02016006015410610fbd57600160088381548110610f4f57610f4f6121a3565b60009182526020909120600b600c9092020101805460ff19166001836004811115610f7c57610f7c611fd5565b0217905550600454610f8e9042612170565b60088381548110610fa157610fa16121a3565b600091825260209091206008600c909202010155506001919050565b60088281548110610fd057610fd06121a3565b90600052602060002090600c020160090154421061103857600260088381548110610ffd57610ffd6121a3565b60009182526020909120600b600c9092020101805460ff1916600183600481111561102a5761102a611fd5565b0217905550611038826118cc565b506001919050565b6000600260088381548110611057576110576121a3565b60009182526020909120600b600c90920201015460ff16600481111561107f5761107f611fd5565b141580156110c8575060036008838154811061109d5761109d6121a3565b60009182526020909120600b600c90920201015460ff1660048111156110c5576110c5611fd5565b14155b6111235760405162461bcd60e51b815260206004820152602660248201527f50726f6a656374206e6f74206d61726b656420617320726576657274206f722060448201526564656c65746560d01b60648201526084016103b7565b600260088381548110610ffd57610ffd6121a3565b600060016008838154811061114f5761114f6121a3565b60009182526020909120600b600c90920201015460ff16600481111561117757611177611fd5565b146111bb5760405162461bcd60e51b8152602060048201526014602482015273141c9bda9958dd081b9bdd081054141493d5915160621b60448201526064016103b7565b600882815481106111ce576111ce6121a3565b60009182526020909120600c90910201600101546001600160a01b031633148061120257506000546001600160a01b031633145b61121e5760405162461bcd60e51b81526004016103b7906121b9565b60088281548110611231576112316121a3565b90600052602060002090600c0201600801544210156112925760405162461bcd60e51b815260206004820152601860248201527f5061796f75742064656c6179206e6f742072656163686564000000000000000060448201526064016103b7565b61103882611a3a565b6060600a6000838152602001908152602001600020805480602002602001604051908101604052809291908181526020016000905b82821015611332576000848152602090819020604080516080810182526004860290920180546001600160a01b03168352600180820154848601526002820154928401929092526003015460ff161515606083015290835290920191016112d0565b505050509050919050565b60606008805480602002602001604051908101604052809291908181526020016000905b828210156115d95760008481526020908190206040805161018081018252600c86029092018054835260018101546001600160a01b031693830193909352600283018054929392918401916113b5906121e6565b80601f01602080910402602001604051908101604052809291908181526020018280546113e1906121e6565b801561142e5780601f106114035761010080835404028352916020019161142e565b820191906000526020600020905b81548152906001019060200180831161141157829003601f168201915b50505050508152602001600382018054611447906121e6565b80601f0160208091040260200160405190810160405280929190818152602001828054611473906121e6565b80156114c05780601f10611495576101008083540402835291602001916114c0565b820191906000526020600020905b8154815290600101906020018083116114a357829003601f168201915b505050505081526020016004820180546114d9906121e6565b80601f0160208091040260200160405190810160405280929190818152602001828054611505906121e6565b80156115525780601f1061152757610100808354040283529160200191611552565b820191906000526020600020905b81548152906001019060200180831161153557829003601f168201915b505050918352505060058201546020820152600682015460408201526007820154606082015260088201546080820152600982015460a0820152600a82015460c0820152600b82015460e09091019060ff1660048111156115b5576115b5611fd5565b60048111156115c6576115c6611fd5565b8152505081526020019060010190611361565b50505050905090565b6115ea611c16565b6000828152600b602052604090205460ff1661163c5760405162461bcd60e51b8152602060048201526011602482015270141c9bda9958dd081b9bdd08199bdd5b99607a1b60448201526064016103b7565b6008828154811061164f5761164f6121a3565b90600052602060002090600c020160405180610180016040529081600082015481526020016001820160009054906101000a90046001600160a01b03166001600160a01b03166001600160a01b031681526020016002820180546116b2906121e6565b80601f01602080910402602001604051908101604052809291908181526020018280546116de906121e6565b801561172b5780601f106117005761010080835404028352916020019161172b565b820191906000526020600020905b81548152906001019060200180831161170e57829003601f168201915b50505050508152602001600382018054611744906121e6565b80601f0160208091040260200160405190810160405280929190818152602001828054611770906121e6565b80156117bd5780601f10611792576101008083540402835291602001916117bd565b820191906000526020600020905b8154815290600101906020018083116117a057829003601f168201915b505050505081526020016004820180546117d6906121e6565b80601f0160208091040260200160405190810160405280929190818152602001828054611802906121e6565b801561184f5780601f106118245761010080835404028352916020019161184f565b820191906000526020600020905b81548152906001019060200180831161183257829003601f168201915b505050918352505060058201546020820152600682015460408201526007820154606082015260088201546080820152600982015460a0820152600a82015460c0820152600b82015460e09091019060ff1660048111156118b2576118b2611fd5565b60048111156118c3576118c3611fd5565b90525092915050565b60005b6000828152600a6020526040902054811015611a36576000828152600a60205260408120805483908110611905576119056121a3565b60009182526020808320600490920290910154858352600a9091526040822080546001600160a01b0390921693509084908110611944576119446121a3565b90600052602060002090600402016001015490506001600a6000868152602001908152602001600020848154811061197e5761197e6121a3565b906000526020600020906004020160030160006101000a81548160ff02191690831515021790555042600a600086815260200190815260200160002084815481106119cb576119cb6121a3565b9060005260206000209060040201600201819055506119ea8282611bb1565b600160056001016000828254611a009190612221565b909155505060078054829190600090611a1a908490612221565b9250508190555050508080611a2e90612188565b9150506118cf565b5050565b600060088281548110611a4f57611a4f6121a3565b90600052602060002090600c02016006015490506000606460015483611a759190612238565b611a7f9190612257565b9050600460088481548110611a9657611a966121a3565b60009182526020909120600b600c9092020101805460ff19166001836004811115611ac357611ac3611fd5565b0217905550611b0a60088481548110611ade57611ade6121a3565b600091825260209091206001600c9092020101546001600160a01b0316611b058385612221565b611bb1565b600054611b20906001600160a01b031682611bb1565b60088381548110611b3357611b336121a3565b90600052602060002090600c02016006015460036000828254611b569190612221565b9091555050604080518481526060602082018190526010908201526f141493d29150d508141052510813d55560821b608082015242818301529051339160008051602061227a833981519152919081900360a00190a2505050565b6000826001600160a01b03168260405160006040518083038185875af1925050503d8060008114611bfe576040519150601f19603f3d011682016040523d82523d6000602084013e611c03565b606091505b5050905080611c1157600080fd5b505050565b6040518061018001604052806000815260200160006001600160a01b0316815260200160608152602001606081526020016060815260200160008152602001600081526020016000815260200160008152602001600081526020016000815260200160006004811115611c8b57611c8b611fd5565b905290565b828054611c9c906121e6565b90600052602060002090601f016020900481019282611cbe5760008555611d04565b82601f10611cd757805160ff1916838001178555611d04565b82800160010185558215611d04579182015b82811115611d04578251825591602001919060010190611ce9565b50611d10929150611d14565b5090565b5b80821115611d105760008155600101611d15565b634e487b7160e01b600052604160045260246000fd5b600082601f830112611d5057600080fd5b813567ffffffffffffffff80821115611d6b57611d6b611d29565b604051601f8301601f19908116603f01168101908282118183101715611d9357611d93611d29565b81604052838152866020858801011115611dac57600080fd5b836020870160208301376000602085830101528094505050505092915050565b600080600080600060a08688031215611de457600080fd5b853567ffffffffffffffff80821115611dfc57600080fd5b611e0889838a01611d3f565b96506020880135915080821115611e1e57600080fd5b611e2a89838a01611d3f565b95506040880135915080821115611e4057600080fd5b50611e4d88828901611d3f565b9598949750949560608101359550608001359392505050565b600060208284031215611e7857600080fd5b5035919050565b600080600080600060a08688031215611e9757600080fd5b85359450602086013567ffffffffffffffff80821115611eb657600080fd5b611ec289838a01611d3f565b95506040880135915080821115611ed857600080fd5b611ee489838a01611d3f565b94506060880135915080821115611efa57600080fd5b50611f0788828901611d3f565b95989497509295608001359392505050565b602080825282518282018190526000919060409081850190868401855b82811015611f7b57815180516001600160a01b031685528681015187860152858101518686015260609081015115159085015260809093019290850190600101611f36565b5091979650505050505050565b6000815180845260005b81811015611fae57602081850181015186830182015201611f92565b81811115611fc0576000602083870101525b50601f01601f19169290920160200192915050565b634e487b7160e01b600052602160045260246000fd5b6005811061200957634e487b7160e01b600052602160045260246000fd5b9052565b600061018082518452602083015161203060208601826001600160a01b03169052565b50604083015181604086015261204882860182611f88565b915050606083015184820360608601526120628282611f88565b9150506080830151848203608086015261207c8282611f88565b91505060a083015160a085015260c083015160c085015260e083015160e0850152610100808401518186015250610120808401518186015250610140808401518186015250610160808401516120d482870182611feb565b5090949350505050565b6000602080830181845280855180835260408601915060408160051b870101925083870160005b8281101561213357603f1988860301845261212185835161200d565b94509285019290850190600101612105565b5092979650505050505050565b602081526000612153602083018461200d565b9392505050565b634e487b7160e01b600052601160045260246000fd5b600082198211156121835761218361215a565b500190565b600060001982141561219c5761219c61215a565b5060010190565b634e487b7160e01b600052603260045260246000fd5b602080825260139082015272556e617574686f72697a656420456e7469747960681b604082015260600190565b600181811c908216806121fa57607f821691505b6020821081141561221b57634e487b7160e01b600052602260045260246000fd5b50919050565b6000828210156122335761223361215a565b500390565b60008160001904831182151516156122525761225261215a565b500290565b60008261227457634e487b7160e01b600052601260045260246000fd5b50049056feaee8e5d3bbb2f71a951b5632cee20f7ac487b9f8ab4f66a236f7694b13af7c6aa2646970667358221220443e2de6891ab1ca44854e5b33b98dffcd1b2af3795a50cec4e3095678c2e38064736f6c634300080b0033",
  "linkReferences": {},
  "deployedLinkReferences": {}
}